:020000040000FA
:0400000016EF00F007
:100008005E82000E81BA010E016E0150D8B407D08D
:10001800010E00016027000E612362236323F29022
:100028005E9211000AEF15F0520E0001AF6F35EF26
:1000380004F0250EC219D8B405D0C2510EEC17F041
:1000480035EF04F0000EB16F000EB06F04D0B1852B
:100058001FD0B08F1DD050C0F6FF51C0F7FF504AD7
:10006800512A0800F5CFC2F0C251000AD8B41200D4
:10007800580AD8B4EED73C0AD8B40AD0020AD8B481
:10008800E6D70F0AD8B404D0110AD8B4E2D7E9D316
:10009800070EB115D8B4E1D2000EB36F060EB26FD9
:1000A800AF51D96EDA6ADECFBEF0DECFBFF0DECF59
:1000B800C0F0DECFC1F0040EAF27C1AF14D0BEC070
:1000C80002F0BFC003F0C0C004F0C1C005F01DECD1
:1000D80016F002C0BEF003C0BFF004C0C0F005C0F7
:1000E800C1F0030EB013000EB56F000EB46FBEC0A2
:1000F80002F0BFC003F0C0C004F0C1C005F0000E9C
:10010800066E000E076E000E086E000E096E41ECBA
:1001180012F0D8B082D0C035C135820FB46FB56B3C
:10012800FF0EB523B407D8A0B507B4C002F0B5C018
:1001380003F0000E056E030E046E85EC16F002C087
:10014800B4F003C0B5F0B4C008F0B5C009F0000EB3
:100158000B6E0A0E0A6E86EC12F008C0B4F009C0E5
:10016800B5F00001B5AF03D0B407D8A0B507B451B6
:10017800000844EC04F029C0B6F02AC0B7F02BC040
:10018800B8F02CC0B9F0B6C010F0B7C011F0B8C0C4
:1001980012F0B9C013F0BEC014F0BFC015F0C0C053
:1001A80016F0C1C017F02CEC06F010C0B6F011C064
:1001B800B7F012C0B8F013C0B9F0B6C002F0B7C0BB
:1001C80003F0B8C004F0B9C005F0000E066E000ECA
:1001D800076E800E086E3F0E096E16EC11F0D8B04F
:1001E80005D00001B407D8A0B50717D0B6C002F0F3
:1001F800B7C003F0B8C004F0B9C005F0000E066E31
:10020800000E076E200E086E410E096E16EC11F0F6
:10021800D8A003D00001B44BB52BBEC038F0BFC086
:1002280039F0C0C03AF0C1C03BF0060E8CEC0AF0C1
:1002380029C03CF02AC03DF02BC03EF02CC03FF056
:10024800C2EC07F038C0BEF039C0BFF03AC0C0F009
:100258003BC0C1F00001B5BF06D0B55131E10A0E6F
:10026800B45DD8B02DD0BEC002F0BFC003F0C0C08E
:1002780004F0C1C005F0000E066E000E076E000EF9
:10028800086E000E096E41EC12F0D8B064D0BEC002
:1002980029F0BFC02AF0C0C02BF0C1C02CF0E4EC9C
:1002A80011F029502A102B102C10D8A454D000017A
:1002B800B5BF51D0B55104E1020EB45DD8A04BD002
:1002C800B6C002F0B7C003F0B8C004F0B9C005F07A
:1002D8005F0E066E700E076E890E086E400E096E70
:1002E80016EC11F0D8B003D00001F70E02D00001CF
:1002F800F80EB427FF0EB523B45144EC04F029C01E
:10030800B6F02AC0B7F02BC0B8F02CC0B9F0BEC008
:1003180002F0BFC003F0C0C004F0C1C005F0B6C011
:1003280006F0B7C007F0B8C008F0B9C009F09CECF7
:1003380010F002C0BAF003C0BBF004C0BCF005C0A6
:10034800BDF0000E0001BE6F000EBF6F000EC06F43
:10035800000EC16F3CD0BEC029F0BFC02AF0C0C09B
:100368002BF0C1C02CF0E4EC11F029C0BAF02AC07F
:10037800BBF02BC0BCF02CC0BDF0BEC048F0BFC065
:1003880049F0C0C04AF0C1C04BF0BAC002F0BBC0CF
:1003980003F0BCC004F0BDC005F0000E7DEC0FF00A
:1003A80002C04CF003C04DF004C04EF005C04FF041
:1003B800E7EC14F048C0BEF049C0BFF04AC0C0F036
:1003C8004BC0C1F0000E0001B56F000EB46F010EF6
:1003D800C26FC251040DCD0EF324F66EFE0EF4204A
:1003E800F76E0900F550BA5D0900F550BB590900D0
:1003F800F550BC590900F550BD59D8A005D0C22BFD
:100408000A0EC219D8A4E5D7B0C056F0030E561686
:10041800D8B449D02D0E0EEC17F045D0BAC002F072
:10042800BBC003F0BCC004F0BDC005F0C251040D50
:10043800CD0EF324F66EFE0EF420F76E0900F5CF0C
:1004480006F00900F5CF07F00900F5CF08F00A001B
:10045800F5CF09F0C8EC12F002C0B6F003C0B7F04F
:1004680004C0B8F005C0B9F0B6C00FF0B7C010F0BE
:10047800B8C011F0B9C012F00A0E136E000E146E57
:10048800000E156E000E166EAEEC13F00FC0B6F02F
:1004980010C0B7F011C0B8F012C0B9F00001B651E1
:1004A800300F0EEC17F00001C207C229D8B408D0EB
:1004B800B5D7300E0EEC17F00001B407D8A0B50779
:1004C800B5BF05D0B551F5E1B405D8B0F2D7B3BF83
:1004D80009D0B35104E1090EB25DD8A003D0080ECB
:1004E800C26F02D0B2C0C2F0C251B25F000EB35B9D
:1004F800C251D8B403D02E0E0EEC17F00001C25131
:1005080044EC04F029C0AAF02AC0ABF02BC0ACF030
:100518002CC0ADF0BEC014F0BFC015F0C0C016F0BE
:10052800C1C017F0AAC010F0ABC011F0ACC012F0F7
:10053800ADC013F02CEC06F010C029F011C02AF061
:1005480012C02BF013C02CF0E4EC11F029C0BAF063
:100558002AC0BBF02BC0BCF02CC0BDF06CD0BAC018
:1005680002F0BBC003F0BCC004F0BDC005F0C2512E
:10057800040DCD0EF324F66EFE0EF420F76E09007E
:10058800F5CF06F00900F5CF07F00900F5CF08F020
:100598000A00F5CF09F0C8EC12F002C0B6F003C0AB
:1005A800B7F004C0B8F005C0B9F0B6C00FF0B7C0D6
:1005B80010F0B8C011F0B9C012F00A0E136E000E98
:1005C800146E000E156E000E166EAEEC13F00FC012
:1005D800B6F010C0B7F011C0B8F012C0B9F0000101
:1005E800B651300F0EEC17F0BAC00FF0BBC010F0C8
:1005F800BCC011F0BDC012F00001C251040DCD0EF7
:10060800F324F66EFE0EF420F76E0900F5CF13F012
:100618000900F5CF14F00900F5CF15F00A00F5CF61
:1006280016F0AEEC13F00FC0BAF010C0BBF011C05A
:10063800BCF012C0BDF00001C207C229D8B408D06E
:100648008ED7300E0EEC17F00001B207D8A0B30712
:10065800B251B311D8B405D1F4D7B0BF1BD0AF5144
:10066800D96EDA6ADECFBAF0DDCFBBF0000EBBBFC1
:10067800FF0EBC6FBD6F020EAF27BDAF57D0030E84
:10068800B013BD1FBC1FBB1FBA6D000EBB23BC231C
:10069800BD234CD0AF51D96EDA6ADECF56F0DDCF2C
:1006A80057F056C0BAF057C0BBF0BC6BBD6B020E1A
:1006B800AF273CD0010EC26FC251040DCD0EF324FA
:1006C800F66EFE0EF420F76E0900F550BA5D0900CB
:1006D800F550BB590900F550BC590900F550BD59F2
:1006E800D8A02CD0C22B0A0EC219D8B427D0E4D770
:1006F800010EC26FC251040DAD0EF324F66EFE0E4C
:10070800F420F76E0900F550BA5D0900F550BB59A1
:100718000900F550BC590900F550BD59D8A00ED0B4
:10072800C22B080EC219D8B409D0E4D7B051800B37
:10073800000AD8B4BFD7800AD8B4DAD7B0C056F008
:10074800030E5616D8B403D02D0E0EEC17F0C2C007
:10075800B2F00001B36B7CD0B2C056F0B3C057F012
:10076800D89056365736D89056365736CD0E56242A
:10077800F66EFE0E5720F76E0900F5CF06F0090059
:10078800F5CF07F00900F5CF08F00A00F5CF09F01A
:10079800BAC002F0BBC003F0BCC004F0BDC005F095
:1007A800C8EC12F002C00FF003C010F004C011F042
:1007B80005C012F00A0E136E000E146E000E156EB0
:1007C800000E166EAEEC13F00F50300F0001C26F22
:1007D8003CD0BAC002F0BBC003F0BCC004F0BDC03E
:1007E80005F0B2C056F0B3C057F0D8905636573619
:1007F800D89056365736AD0E5624F66EFE0E572054
:10080800F76E0900F5CF06F00900F5CF07F00900EB
:10081800F5CF08F00A00F5CF09F0C8EC12F0025045
:100828000F0B0001AE6F3B0EAE25F66EF76AFF0E9A
:10083800F7220800F5CFC2F008D0B051800B000AAB
:10084800D8B48AD7800AD8B4C4D7C2510EEC17F0EE
:100858000001B207D8A0B307B229EFE1B329D8A4A1
:10086800ECD750C0F6FF51C0F7FF504A512A080094
:10087800F5CFC2F00001C251D8B412001DEF00F04C
:10088800316E31AEF3D0316C3150800A120FD8A0DE
:1008980088D0000E0B6E0A0E0A6E000E056E640EEE
:1008A800046E3150026E036A02BE030643EC13F075
:1008B80002C008F003C009F086EC12F0090E082601
:1008C8000850040D790EF324F66EFE0EF420F76E30
:1008D8000900F5CF14F00900F5CF15F00900F5CFA0
:1008E80016F00A00F5CF17F0000E0B6E640E0A6EB4
:1008F8003150086E096A08BE090686EC12F0120E1D
:1009080008260850040D790EF324F66EFE0EF42026
:10091800F76E0900F5CF10F00900F5CF11F00900C6
:10092800F5CF12F00A00F5CF13F02CEC06F010C04A
:100938002DF011C02EF012C02FF013C030F02DC0D2
:1009480010F02EC011F02FC012F030C013F0000EBE
:10095800056E0A0E046E3150026E036A02BE03066B
:1009680043EC13F00250040D790EF324F66EFE0EDC
:10097800F420F76E0900F5CF14F00900F5CF15F053
:100988000900F5CF16F00A00F5CF17F02CEC06F0A9
:1009980010C029F011C02AF012C02BF013C02CF09F
:1009A80012003150800A750FD8A04BD0000E0B6E84
:1009B8000A0E0A6E3150086E096A08BE090686ECEE
:1009C80012F0090E08260850040D790EF324F66E6D
:1009D800FE0EF420F76E0900F5CF10F00900F5CFF0
:1009E80011F00900F5CF12F00A00F5CF13F0000E50
:1009F800056E0A0E046E3150026E036A02BE0306CB
:100A080043EC13F00250040D790EF324F66EFE0E3B
:100A1800F420F76E0900F5CF14F00900F5CF15F0B2
:100A28000900F5CF16F00A00F5CF17F02CEC06F008
:100A380010C029F011C02AF012C02BF013C02CF0FE
:100A480012003150040D790EF324F66EFE0EF420D8
:100A5800F76E0900F5CF29F00900F5CF2AF0090053
:100A6800F5CF2BF00A00F5CF2CF012003150800A98
:100A7800120FD8A088D0000E0B6E0A0E0A6E000E58
:100A8800056E640E046E3150026E036A02BE0306E0
:100A980043EC13F002C008F003C009F086EC12F032
:100AA800090E08260850040D450EF324F66EFE0EB6
:100AB800F420F76E0900F5CF14F00900F5CF15F012
:100AC8000900F5CF16F00A00F5CF17F0000E0B6EEF
:100AD800640E0A6E3150086E096A08BE090686EC73
:100AE80012F0120E08260850040D450EF324F66E77
:100AF800FE0EF420F76E0900F5CF10F00900F5CFCF
:100B080011F00900F5CF12F00A00F5CF13F02CEC24
:100B180006F010C02DF011C02EF012C02FF013C037
:100B280030F02DC010F02EC011F02FC012F030C0E0
:100B380013F0000E056E0A0E046E3150026E036A41
:100B480002BE030643EC13F00250040D450EF324D5
:100B5800F66EFE0EF420F76E0900F5CF14F00900CA
:100B6800F5CF15F00900F5CF16F00A00F5CF17F00C
:100B78002CEC06F010C029F011C02AF012C02BF09E
:100B880013C02CF012003150800A750FD8A04BD03A
:100B9800000E0B6E0A0E0A6E3150086E096A08BE06
:100BA800090686EC12F0090E08260850040D450EB9
:100BB800F324F66EFE0EF420F76E0900F5CF10F060
:100BC8000900F5CF11F00900F5CF12F00A00F5CFB2
:100BD80013F0000E056E0A0E046E3150026E036AA1
:100BE80002BE030643EC13F00250040D450EF32435
:100BF800F66EFE0EF420F76E0900F5CF14F009002A
:100C0800F5CF15F00900F5CF16F00A00F5CF17F06B
:100C18002CEC06F010C029F011C02AF012C02BF0FD
:100C280013C02CF012003150040D450EF324F66E5B
:100C3800FE0EF420F76E0900F5CF29F00900F5CF74
:100C48002AF00900F5CF2BF00A00F5CF2CF012009E
:100C58001350800B1C6E13501324226E12BE228078
:100C68002250D8B40DD02228D8A408D0000E106E77
:100C7800000E116E000E126E000E136E128E08D04A
:100C8800000E106E000E116E000E126E000E136E26
:100C98001750800B1C1A175017241D6E16BE1D8086
:100CA8001D50D8B40DD01D28D8A408D0000E146E3D
:100CB800000E156E000E166E000E176E168E08D0FA
:100CC800000E146E000E156E000E166E000E176ED6
:100CD8001D50D8B403D02250D8A409D0000E106EED
:100CE800000E116E000E126E000E136E12001650DA
:100CF8001002F3CF27F0F4CF28F027501E6E1F6A9A
:100D0800206A216A2850236E246A256A266A1550AB
:100D18001102F3CF27F0F4CF28F027501E26000E3B
:100D28001F222022212228502326000E2422252299
:100D3800262214501202F3CF27F0F4CF28F02750C0
:100D48001E26000E1F222022212228502326000EB4
:100D580024222522262220C021F01FC020F01EC0F8
:100D68001FF01E6A14501102F3CF27F0F4CF28F0B9
:100D780027501E2628501F22000E2022000E212256
:100D880015501002F3CF27F0F4CF28F027501E2675
:100D980028501F22000E2022000E212220C021F000
:100DA8001FC020F01EC01FF01E6A14501002F3CF9F
:100DB80027F0F4CF28F027501E2628501F22000EB7
:100DC8002022000E212216501102F3CF27F0F4CF73
:100DD80028F02750232628502422000E2522000E12
:100DE800262215501202F3CF27F0F4CF28F027500F
:100DF800232628502422000E2522000E26221650D3
:100E08001202F3CF27F0F4CF28F02750186E28509D
:100E1800196E1A6A1B6A1AC01BF019C01AF018C09A
:100E280019F0186A18502326195024221A5025221E
:100E38001B50262221502326000E2422252226225A
:100E480020C021F01FC020F01EC01FF01E6A1D50D8
:100E580022C018F0196A1826000E1922820E1824CA
:100E6800276EFF0E1920286E0FD0D890233624360F
:100E78002536263621BE2380D8901E361F362036CA
:100E880021362706D8A0280625AEEFD7000E1D6EFE
:100E980021AE17D0FF0E1E14186EFF0E1F14196E08
:100EA800FF0E20141A6E7F0E21141B6E1850191095
:100EB8001A101B10D8B403D0010E1D6E02D023B037
:100EC800FBD71D50D8B41FD0010E2326000E2422B4
:100ED8002522262226A017D023C018F024C019F0F6
:100EE80025C01AF026C01BF01B341B321A321932E7
:100EF800183218C023F019C024F01AC025F01BC0FE
:100F080026F0274A282A28BE0DD0285003E1272892
:100F1800D8A008D0000E236E000E246E800E256E19
:100F28007F0E20D028BE05D028500EE12704D8B067
:100F38000BD0000E236E000E246E000E256E000EE0
:100F4800266E000E1C6E0FD027C022F0FF0E23164F
:100F5800FF0E24167F0E2516000E261622B0258EAB
:100F6800D8902230266E1C50261223C010F024C0C0
:100F780011F025C012F026C013F012003B50800B70
:100F8800446E3B503B24466E3ABE46804650D8B429
:100F98000DD04628D8A408D0000E386E000E396E41
:100FA800000E3A6E000E3B6E3A8E06D0000E386E7A
:100FB800000E396E000E3A6E000E3B6E3F50800BED
:100FC800456E44504518D8A4448C3F503F24456E84
:100FD8003EBE45804550D8B40DD04528D8A408D089
:100FE800000E3C6E000E3D6E000E3E6E000E3F6E13
:100FF8003E8E06D0000E3C6E000E3D6E000E3E6E1C
:10100800000E3F6E4650455CD8B022D044AC02D0AA
:10101800800E441A46C047F045C046F047C045F028
:1010280038C047F03CC038F047C03CF039C047F002
:101038003DC039F047C03DF03AC047F03EC03AF0F5
:1010480047C03EF03BC047F03FC03BF047C03FF0D1
:10105800000E476E465045C040F0416A405E000EA3
:10106800415A41BE2CD0415004E11A0E405CD8A030
:1010780026D0385039103A103B10D8B402D0010E9F
:1010880001D0000E476E000E386E000E396E000E4D
:101098003A6E000E3B6E45C046F015D047A005D00D
:1010A800D89047300109476E02D0D890473238B0FF
:1010B800478E3B343B323A3239323832462A455031
:1010C800465CD8A0EBD744BC28D04650D8A409D059
:1010D800000E386E000E396E000E3A6E000E3B6E32
:1010E80012003C5038263D5039223E503A223F509B
:1010F8003B223BA071D047A005D0D89047300109CA
:10110800476E02D0D890473238B0478E3B343B32D6
:101118003A3239323832462A5FD03C50385C3D503A
:1011280039583E503A583B50800A406E3F50800A2A
:101138004058D8B025D038503C5C406E39503D58A6
:10114800416E3A503E58426E3B503F58436EFF0E38
:101158004024386EFF0E4120396EFF0E42203A6E51
:10116800FF0E43203B6E800E441A476C4750D8A4AC
:101178000FD0010E3826000E39223A223B2208D021
:101188003C50385E3D50395A3E503A5A3F503B5ACF
:10119800385039103A103B10D8A41CD04750D8A466
:1011A80019D0000E386E000E396E000E3A6E000E21
:1011B8003B6E1200D890383639363A363B3647BE41
:1011C800388047A002D0D88001D0D8904736465002
:1011D800D8A446063AAEEED7000E456E47AE0BD001
:1011E80047C040F07F0E4016D8B403D0010E456EBC
:1011F80002D038B0FBD74550D8B420D0010E3826DD
:10120800000E39223A223B223BA018D038C040F0C9
:1012180039C041F03AC042F03BC043F04334433256
:1012280042324132403240C038F041C039F042C009
:101238003AF043C03BF04628D8A4462A4628D8B4FA
:1012480003D04650D8A40DD0000E386E000E396E6B
:10125800000E3A6E000E3B6E4650D8A402D0000E27
:10126800446E46A002D03A8E01D03A9ED8904630BD
:101278003B6E44BE3B8E38C038F039C039F03AC0B6
:101288003AF03BC03BF012001350800B206E135015
:101298001324276E12BE27802750D8B40DD02728D4
:1012A800D8A408D0000E106E000E116E000E126E3B
:1012B800000E136E128E06D0000E106E000E116E08
:1012C800000E126E000E136E1750800B201A175066
:1012D8001724286E16BE28802850D8B40DD0282888
:1012E800D8A408D0000E146E000E156E000E166EEF
:1012F800000E176E168E06D0000E146E000E156EB8
:10130800000E166E000E176E1450151016101710DA
:10131800D8A417D0000E106E000E116E000E126EBB
:10132800000E136E800E12127F0E1312205013122D
:1013380010C010F011C011F012C012F013C013F059
:1013480012002750D8A409D0000E106E000E116E9E
:10135800000E126E000E136E1200285027C018F0EF
:10136800196A185E000E195A7F0E1824216E000E95
:101378001920226E10C01CF011C01DF012C01EF002
:1013880013C01FF0000E106E000E116E000E126ECC
:10139800000E136E000E236E000E246E000E256ED6
:1013A800000E266E000E286E28D02850D8B411D012
:1013B800D8901C361D361E361F36D890103611367A
:1013C8001236133626BE1080D8902336243625369A
:1013D800263614501C5C15501D5816501E581750B0
:1013E8001F58D8A009D0268C14501C5E15501D5AC1
:1013F80016501E5A17501F5A282A190E2864D5D776
:101408001C501D101E101F10D8B411D023800FD0EF
:10141800D890103611361236133626BE1080D89062
:1014280023362436253626362106D8A0220612AEC3
:10143800EFD7000E286E26AE17D0FF0E2314186EB5
:10144800FF0E2414196EFF0E25141A6E7F0E261433
:101458001B6E185019101A101B10D8B403D0010EA7
:10146800286E02D010B0FBD72850D8B41FD0010E78
:101478001026000E11221222132213A017D010C01A
:1014880018F011C019F012C01AF013C01BF01B3469
:101498001B321A321932183218C010F019C011F064
:1014A8001AC012F01BC013F0214A222A22BE10D003
:1014B800225003E12128D8A00BD0000E226E21680B
:1014C800000E106E000E116E000E126E000E136EDE
:1014D80022BE05D0225011E12104D8B00ED0000E52
:1014E800226E000E216E000E106E000E116E000EA0
:1014F800126E000E136E000E206E21C027F027A07A
:1015080002D0128E01D0129ED8902730136E0ED7BB
:10151800376E6D0E3764A0D0000E146E000E156E77
:10152800000E166E3F0E176E640E066E375084EC72
:1015380015F02D6E2E6AD8902D362E36D8902D3671
:101548002E36480E2D26000E2E22790E2D24F66EEC
:10155800FE0E2E20F76E0900F5CF10F00900F5CF2A
:1015680011F00900F5CF12F00A00F5CF13F02CECBA
:1015780006F010C033F011C034F012C035F013C0BB
:1015880036F00A0E066E640E026E375049EC16F0FD
:1015980084EC15F02D6E2E6AD8902D362E36D89004
:1015A8002D362E36240E2D26000E2E22790E2D24B1
:1015B800F66EFE0E2E20F76E0900F5CF14F0090026
:1015C800F5CF15F00900F5CF16F00A00F5CF17F0A2
:1015D80033C010F034C011F035C012F036C013F02B
:1015E8002CEC06F010C02FF011C030F012C031F012
:1015F80013C032F02FC010F030C011F031C012F01B
:1016080032C013F00A0E026E375049EC16F02D6EF8
:101618002E6AD8902D362E36D8902D362E36790E45
:101628002D24F66EFE0E2E20F76E0900F5CF14F06D
:101638000900F5CF15F00900F5CF16F00A00F5CF2F
:1016480017F02CEC06F010C029F011C02AF012C0D7
:101658002BF013C02CF012000A0E376467D0000E6E
:10166800146E000E156E000E166E3F0E176E0A0EE3
:10167800066E375084EC15F02D6E2E6AD8902D36F4
:101688002E36D8902D362E36240E2D26000E2E22DC
:10169800790E2D24F66EFE0E2E20F76E0900F5CF7A
:1016A80010F00900F5CF11F00900F5CF12F00A008B
:1016B800F5CF13F02CEC06F010C033F011C034F065
:1016C80012C035F013C036F033C010F034C011F03A
:1016D80035C012F036C013F00A0E026E375049ECCE
:1016E80016F02D6E2E6AD8902D362E36D8902D36BF
:1016F8002E36790E2D24F66EFE0E2E20F76E09007A
:10170800F5CF14F00900F5CF15F00900F5CF16F064
:101718000A00F5CF17F02CEC06F010C029F011C024
:101728002AF012C02BF013C02CF012003750040D11
:10173800790EF324F66EFE0EF420F76E0900F5CF4D
:1017480010F00900F5CF11F00900F5CF12F00A00EA
:10175800F5CF13F0000E146E000E156E000E166E07
:101768003F0E176E2CEC06F010C029F011C02AF0BD
:1017780012C02BF013C02CF01200000E0001CA6F2B
:10178800000EC96FA49E8B90000E6F6E02D0C94BDD
:10179800CA2BA4BE06D0CA5104E1320EC95DD8A036
:1017A800F6D7A49ECA5104E1320EC95DD8A006D06E
:1017B8005A0E506EFF0E516E18EC00F0000E6F6E50
:1017C800000ECA6F000EC96F02D0C94BCA2BA4BE47
:1017D80006D0CA5104E1320EC95DD8A0F6D7A49E3E
:1017E8006FCF5DF0000E6F6E000ECA6F000EC96FEE
:1017F80002D0C94BCA2BA4BE06D0CA5104E1320E8E
:10180800C95DD8A0F6D7A49E000ECA6F000EC96F96
:101818006FCFC5F0760E506EFF0E516EC5C052F0F8
:10182800536A18EC00F0000E6F6E02D0C94BCA2B39
:10183800A4BE06D0CA5104E1320EC95DD8A0F6D7BD
:10184800A49E6FCFC8F06A0E506EFF0E516EC8C0CE
:1018580052F0536A18EC00F0000ECA6F000EC96F00
:10186800000E6F6E02D0C94BCA2BA4BE06D0CA5157
:1018780004E1320EC95DD8A0F6D7A49E6FCFC3F09D
:10188800730E506EFF0E516EC3C052F0536A18ECBF
:1018980000F0000ECA6F000EC96F000E6F6E02D006
:1018A800C94BCA2BA4BE06D0CA5104E1320EC95D89
:1018B800D8A0F6D7A49E6FCFC6F0730E506EFF0E59
:1018C800516EC6C052F0536A18EC00F0000ECA6F91
:1018D800000EC96F000E6F6E02D0C94BCA2BA4BE92
:1018E80006D0CA5104E1320EC95DD8A0F6D7A49E2D
:1018F8006FCFC4F07F0E506EFF0E516EC4C052F011
:10190800536A18EC00F0000ECA6F000EC96F000E83
:101918006F6E02D0C94BCA2BA4BE06D0CA5104E1CF
:10192800320EC95DD8A0F6D7A49E6FCFC7F0670E58
:10193800506EFF0E516EC7C052F0536A18EC00F09B
:10194800000ECA6F000EC96F000E6F6E02D0C94B31
:10195800CA2BA4BE06D0CA5104E1320EC95DD8A074
:10196800F6D7A49E6FCF5CF08B0E506EFF0E516EB3
:101978005CC052F0536A18EC00F08B80C851010B20
:10198800776FC6C076F0C7C075F0C5515B6E5A6AEE
:10199800C8515A24086E000E5B20096E000E0B6EAB
:1019A800020E0A6E86EC12F008C058F009C059F011
:1019B800120030EC17F0E1EC13F004008D8204EC17
:1019C80017F0D00E0001CB6FC90EE82EFED7CB2F33
:1019D800FCD700D0C10E1DEC17F0090E0001CC6F2A
:1019E8001E0ECB6FE40EE82EFED7CB2FFCD7CC2FE4
:1019F800FAD700F006EC16F002C072F003C073F0DC
:101A0800EFEC15F002C070F003C071F0BDEC15F0FA
:101A180002C06EF003C06FF0D6EC15F002C06CF097
:101A280003C06DF0C1EC0BF058C06AF059C06BF000
:101A3800E4EC16F00EC068F00FC069F00E0E00015D
:101A4800725D020E7359D8A005D0F29EF2EC0DF02B
:101A5800F28E54D08D84190E0001CC6F5A0ECB6FC4
:101A6800B10EE82EFED7CB2FFCD7CC2FFAD700D05B
:101A78008D94190E0001CC6F5A0ECB6FB10EE82E63
:101A8800FED7CB2FFCD7CC2FFAD700D08D84190ED8
:101A98000001CC6F5A0ECB6FB10EE82EFED7CB2FBC
:101AA800FCD7CC2FFAD700D08D94190E0001CC6F3B
:101AB8005A0ECB6FB10EE82EFED7CB2FFCD7CC2F0A
:101AC800FAD700D08D84190E0001CC6F5A0ECB6F57
:101AD800B10EE82EFED7CB2FFCD7CC2FFAD700D0EB
:101AE8008D94190E0001CC6F5A0ECB6FB10EE82EF3
:101AF800FED7CB2FFCD7CC2FFAD700D0D90E506EFB
:101B0800FF0E516E72C052F073C053F018EC00F023
:101B1800500E506EFF0E516E70C052F071C053F0EF
:101B280018EC00F04C0E506EFF0E516E6AC052F069
:101B38006BC053F018EC00F0A30E506EFF0E516E00
:101B480068C052F069C053F018EC00F0BA0E506E3D
:101B5800FF0E516E6EC052F06FC053F018EC00F0DB
:101B6800CF0E506EFF0E516E6CC052F06DC053F028
:101B780018EC00F0AF0E506EFF0E516E60C052F0C0
:101B880061C053F062C054F063C055F018EC00F027
:101B98008D92000E606F000E616F000E626F000E76
:101BA800636F000ECE6F000ECD6F520E0001CC6F2A
:101BB8002B0ECB6F000EE82EFED7CB2FFCD7CC2FE9
:101BC800FAD700F004000001CD4BCE2BCE5105E131
:101BD8003C0ECD5DD8B0EFD6E8D7EDD6290E506EC5
:101BE800FF0E516E18EC00F0320E786F000E796F10
:101BF800030E7A6F000EC96FC951CF0FD96EDA6A1A
:101C0800C9517B0FE16EE26ADFCFE7FFC92B070EF0
:101C1800C965F2D7040E836F67C084F066C085F08B
:101C280065C086F064C087F073C088F072C089F020
:101C380071C08AF070C08BF06FC08CF06EC08DF0F0
:101C48006DC08EF06CC08FF06BC090F06AC091F0E0
:101C580069C092F068C093F063C094F062C095F0D8
:101C680061C096F060C097F0200EC76FC751780F1B
:101C7800D96EDA6A000EDF6EC72B2F0EC765F6D74E
:101C8800780E026E000E046E300E036E42EC14F0F5
:101C980002C0C5F003C0C6F0C6C0A9F0C5C0A8F010
:101CA800000E3E6EA00E3F6E580E406E440E416E02
:101CB800550E426E7BEC13F0E30E506EFF0E516E24
:101CC8007EEC11F029C052F02AC053F02BC054F01A
:101CD8002CC055F018EC00F02AEC17F08D84780E23
:101CE800596E320E5A6EC2EC14F0F50E506EFE0E9E
:101CF800516E18EC00F0000EC86F24EC17F00001CC
:101D0800C46FC451D8A40ED0D00E0001C36FC90E41
:101D1800E82EFED7C32FFCD700D00001C82B310E08
:101D2800C865EBD7300EC86507D0ED0E506EFF0EB4
:101D3800516E18EC00F006D0F70E506EFF0E516E83
:101D480018EC00F0FAEC16F0D00E0001C36FC90EC3
:101D5800E82EFED7C32FFCD700D0010E0001642760
:101D6800000E6523662367238D941200086EFAEC33
:101D780016F0F0EC16F0D7EC16F0D00E076ECA0E7F
:101D8800E82EFED7072EFCD7D90E026E060E29ECD8
:101D980015F0000E026E070E29EC15F0000E026E0B
:101DA800080E29EC15F08F0E026E090E29EC15F0BD
:101DB800090E026E0A0E29EC15F02B0E026E0B0EA0
:101DC80029EC15F0230E026E0C0E29EC15F0000E0E
:101DD800026E0E0E29EC15F0000E026E0F0E29ECA5
:101DE80015F0000E026E100E29EC15F0000E026EB2
:101DF800110E29EC15F0000E026E130E29EC15F0E9
:101E0800720E026E1D0E29EC15F0700E026E1E0E7B
:101E180029EC15F0640E026E1F0E29EC15F0000E69
:101E2800026E200E29EC15F0080E026E210E29EC28
:101E380015F0FF0E026E230E29EC15F0000E026E4F
:101E4800240E29EC15F0000E026E250E29EC15F073
:101E5800040E026E260E29EC15F0450E026E2F0EAA
:101E680029EC15F0550E026E300E29EC15F0C30E54
:101E7800026E310E29EC15F0270E026E330E29EC96
:101E880015F0030E026E360E29EC15F00A0E026EDE
:101E9800370E29EC15F008C002F0390E29EC15F0C0
:101EA800490E026E3A0E29EC15F0090E026E4B0E21
:101EB80029EC15F0840E026E4D0E29EC15F01C0E5F
:101EC800026E610E29EC15F00E0E026E620E29EC00
:101ED80015F05B0E026E630E29EC15F0CC0E026E47
:101EE800640E29EC15F0D00E026E700E29EC15F078
:101EF80012000A6E0A50D8A405AE1AD002C006F025
:101F080003C007F004C008F005C009F0061E071E4C
:101F1800081E091E062A000E07220822092206C0EA
:101F28000CF007C00DF008C00EF009C00FF008D083
:101F380002C00CF003C00DF004C00EF005C00FF095
:101F48000250031004100510D8A409D0000E026E28
:101F5800000E036E000E046E000E056E1200960E43
:101F68000B6E06D00B2AD8900F320E320D320C327F
:101F7800000E0C14066E000E0D14076E000E0E14E3
:101F8800086EFE0E0F14096E06500710081009108F
:101F9800D8B40DD0E7D70B2A010E0C26000E0D225F
:101FA8000E220F22D8900F320E320D320C32000E54
:101FB8000C14066E000E0D14076E000E0E14086E3B
:101FC800FF0E0F14096E0650071008100910D8B438
:101FD80007D0E1D70B06D8900C360D360E360F36E3
:101FE8000EBE03D0020E0B60F5D70BA00E9ED89044
:101FF8000B320BC006F0076A086A096A06C009F0C6
:10200800086A076A066A06500C1207500D12085033
:102018000E1209500F120A50D8A405AE01D00F8E27
:102028000CC002F00DC003F00EC004F00FC005F0A4
:10203800120004C00AF00B6A0C6A03340A3601E382
:102048000B800A50126E1250D8A409D0000E026EEE
:10205800000E036E000E046E000E056E120008C01E
:102068000AF00B6A0C6A07340A3601E30B800A503F
:10207800116E1150D8B4EAD7038EFF0E0216FF0E68
:102088000316000E0416078EFF0E0616FF0E07161F
:10209800000E0816000E0D6E000E0E6E000E0F6E6E
:1020A800000E106E7F0E125E1150980F125E180E01
:1020B800116ED8900D360E360F3610360650025C6B
:1020C8000750035808500458D8A007D00650025E9D
:1020D8000750035A0850045A0D80D8900236033628
:1020E8000436112EE6D712AE0DD01250800A970F83
:1020F800D8A0ACD7D89010320F320E320D32123E23
:10210800F9D70DD0170E126407D0A0D7D8900D3686
:102118000E360F36103612061250D8A4F7D70DC057
:1021280002F00EC003F00FC004F010C005F012005A
:10213800043405340F6E0F50D8A409D0000E026E77
:10214800000E036E000E046E000E056E12000834B9
:1021580009340E6E0E50D8B4F1D7048EFF0E021655
:10216800FF0E0316FF0E0416000E0516088EFF0E4E
:102178000616FF0E0716FF0E0816000E0916000EAB
:102188000A6E000E0B6E000E0C6E000E0D6E7F0EAA
:102198000F5E0E50A00F0F5E200E0E6ED8900A36FE
:1021A8000B360C360D360650025C075003580850A3
:1021B800045809500558D8A009D00650025E0750A7
:1021C800035A0850045A0950055A0A80D890023612
:1021D8000336043605360E2EE1D70FAE0DD00F505C
:1021E800800A9F0FD8A0AAD7D8900D320C320B3294
:1021F8000A320F3EF9D70DD01F0E0F6407D09ED7B5
:10220800D8900A360B360C360D360F060F50D8A468
:10221800F7D70AC002F00BC003F00CC004F00DC0E1
:1022280005F01200000E02140A6E000E03140B6E65
:10223800800E04140C6E7F0E05140D6E0A500B10E0
:102248000C100D10D8A408D0000E026E000E036EFC
:10225800000E046E000E056E000E06140A6E000EC7
:1022680007140B6E800E08140C6E7F0E09140D6E89
:102278000A500B100C100D10D8A408D0000E066ED2
:10228800000E076E000E086E000E096E05AE09D02E
:10229800026C031ED8B0032A041ED8B0042A800E8C
:1022A800055609AE09D0066C071ED8B0072A081EC5
:1022B800D8B0082A800E0956000E021A000E031A1A
:1022C800000E041A800E051A000E061A000E071AD0
:1022D800000E081A800E091A0650025C07500358AF
:1022E8000850045809500558D8B002D0D8901200A8
:1022F800D8801200060E98EC16F0416E070E98EC86
:1023080016F0426E080E98EC16F0436E42C02DF09F
:102318002E6A2F6A306A2FC030F02EC02FF02DC0E1
:102328002EF02D6A41C031F0326A336A346A32C005
:1023380034F031C033F0326A316A2D503110356EC5
:102348002E503210366E2F503310376E30503410F6
:10235800386E43503510396E36503A6E37503B6EF2
:1023680038503C6E39C002F03AC003F03BC004F06C
:102378003CC005F0000E7DEC0FF002C010F003C069
:1023880011F004C012F005C013F0000E146E000E18
:10239800156E800E166E460E176E48EC09F010C0CA
:1023A8003DF011C03EF012C03FF013C040F03DC0F8
:1023B80029F03EC02AF03FC02BF040C02CF012009C
:1023C8002B342C34326E3250D8A409D0000E296E2A
:1023D800000E2A6E000E2B6E000E2C6E120029C005
:1023E8002DF02AC02EF02BC02FF02CC030F0200E7C
:1023F80005D0D89030322F322E322D32E82EF9D730
:102408002D50316E2B8EFF0E2916FF0E2A16FF0E49
:102418002B16000E2C16960E325E32AE0DD03250B0
:10242800800A970FD8A0D2D7D8902C322B322A32D4
:102438002932323EF9D70DD01F0E326407D0C6D7E5
:10244800D89029362A362B362C3632063250D8A464
:10245800F7D73150D8B408D02C1E2B1E2A1E296C51
:10246800000E2A222B222C2229C029F02AC02AF069
:102478002BC02BF02CC02CF01200000E02140A6E98
:10248800000E03140B6E800E04140C6E7F0E0514E0
:102498000D6E0A500B100C100D10D8A408D0000EA9
:1024A800026E000E036E000E046E000E056E000E26
:1024B80006140A6E000E07140B6E800E08140C6EBC
:1024C8007F0E09140D6E0A500B100C100D10D8A4B5
:1024D80008D0000E066E000E076E000E086E000E85
:1024E800096E065002180AE10750031807E1085060
:1024F800041804E109500518D8B402D0D890120085
:10250800D8801200000E0D6E0BAE06D00A6C0B1EA2
:10251800D8B00B2A010E0D6E09AE06D0086C091E44
:10252800D8B0092A010E0D1A000E0F6E000E0E6E9D
:102538000A500B10D8B41CD0010E0C6E04D0D890E1
:102548000A360B360C2A0BAEFAD7D8900E360F3651
:102558000A50085C0B500958D8A005D00A50085EEC
:102568000B50095A0E80D8900B320A320C2EEDD738
:102578000D50D8B404D00E6C0F1ED8B00F2A0EC060
:1025880008F00FC009F01200000E0A6E000E0B6E64
:10259800000E0C6E000E0D6E065007100810091084
:1025A800D8B42AD0010E0E6E06D0D890063607365B
:1025B800083609360E2A09AEF8D7D8900A360B36EF
:1025C8000C360D360650025C075003580850045864
:1025D80009500558D8A009D00650025E0750035A82
:1025E8000850045A0950055A0A80D890093208320E
:1025F800073206320E2EE1D70AC002F00BC003F0F4
:102608000CC004F00DC005F01200000E146E000E90
:10261800156E800E166E460E176E33C010F034C05D
:1026280011F035C012F036C013F02CEC06F010C0D3
:1026380029F011C02AF012C02BF013C02CF0E4ECE2
:1026480011F029C03AF02AC03BF02BC03CF02CC056
:102658003DF03CC037F03BC038F03AC039F037C0E5
:1026680002F0060E29EC15F038C002F0070E29EC2E
:1026780015F039C002F0080E29EC15F01200000E12
:10268800076E03AE06D0026C031ED8B0032A010EF3
:10269800076E05AE04D0046C051ED8B0052A045098
:1026A8000510D8B418D0010E066E04D0D8900436A0
:1026B8000536062A05AEFAD70450025C05500358C1
:1026C800D8A004D00450025E0550035AD8900532B1
:1026D8000432062EF1D70750D8B404D0026C031E7A
:1026E800D8B0032A02C002F003C003F012000F01A1
:1026F800389595829598959095963B933B993B97FD
:102708003B918C866C986D8C6D8E6C50F00B020929
:102718006C6E6C8A5EEC16F0D00E436ECA0EE82E14
:10272800FED7432EFCD7F0EC16F0D00E436ECA0E3F
:10273800E82EFED7432EFCD74250BAEC0EF03EC02E
:1027480033F03FC034F040C035F041C036F009ECFA
:1027580013F012001350141015101610D8B424D00A
:10276800010E176E06D0D890133614361536163665
:10277800172A16AEF8D713500F5C1450105815507E
:10278800115816501258D8A008D013500F5E145084
:10279800105A1550115A1650125AD890163215322E
:1027A80014321332172EE7D70FC00FF010C010F0F5
:1027B80011C011F012C012F01200700ED312D3968D
:1027C800D28E9B8C958295989590959694900F01B2
:1027D8003B913B933B953B993D913F9F3E9D3E9F4F
:1027E8003895929489943C933C953999969296940D
:1027F800938A399B8D94020E13EC14F048EC15F073
:10280800A00E0F6E860E106E010E116E000E126E67
:102818006EEC14F067EC15F036EC17F01200026E4F
:10282800729E729C728A729872967284718E719C72
:1028380071887196709E709A709870867092709078
:102848000204D8A405D0030E766E400E756E1200F1
:102858000250D8A405D0060E766E820E756E120050
:10286800030E0218D8A405D0000E766E8A0E756E77
:102878001200010E766E170E756E12000868096850
:102888001CD00250D96EDA6ADF500818076E022A87
:1028980009C008F0096A0750020D450EF324F66EC8
:1028A800FC0EF420F76E0900F5CF05F00900F5CF0E
:1028B80006F00550081A0650091A0306D8A004069F
:1028C8000328DFE10428D8A4DCD708C002F009C037
:1028D80003F01200948694883A973A99280EC66EA7
:1028E800000E026E900E036ED00E046E030E056E7F
:1028F8000FC013F010C014F011C015F012C016F07C
:10290800020ED8901336143615361636E82EF9D737
:1029180013C006F014C007F015C008F016C009F07F
:10292800C8EC12F00204C86E1200036E000E056EA9
:10293800000E046EA49E8B9003C06FFF02D0044A61
:10294800052AA4BE06D0055004E1320E045CD8A0C6
:10295800F6D7A49E000E056E000E046E02C06FFF2F
:1029680002D0044A052AA4BE06D0055004E1320E5E
:10297800045CD8A0F6D7A49E8B801200D7EC16F082
:10298800000E026E0D0E29EC15F0000E026E220EDE
:1029980029EC15F0000E5B6E0AD059505B24D96EF5
:1029A800DA6ADF50026E000E29EC15F05B2A5A50E5
:1029B8005B5CD8A0F2D75AC002F0220E29EC15F0C1
:1029C800CAEC16F01200000E4C1A000E4D1A000E3A
:1029D8004E1A800E4F1A48C038F049C039F04AC024
:1029E8003AF04BC03BF04CC03CF04DC03DF04EC0FF
:1029F8003EF04FC03FF0C2EC07F038C048F039C095
:102A080049F03AC04AF03BC04BF01200780EF66E1F
:102A18002E0EF76E000EF86E00EECFF010EE08F0F6
:102A28000900F5CFEEFFE550E150FAE100EE60F065
:102A38004A0EEE6AE806FDE15D6A5C6A5E905E92A7
:102A4800000EF86E0001DDEF0CF0046EA49E8C966B
:102A58001A0EE82EFED700D004508009046E04C078
:102A68006FFFA4AEFED7A49E1A0EE82EFED700D0A4
:102A780002C06FFFA4AEFED71A0EE82EFED700D014
:102A88008C86A49E6F5012000F01388138833885D8
:102A980038879280928292849286F30EC116FC0E39
:102AA800C1164251CF0B1009426F428F830EC216D6
:102AB800C050C70B1009C06EC050F80B0609C06E95
:102AC800C08EC280120082B812009496000E036E67
:102AD8008B96150E026EC60EE82EFED7022EFCD778
:102AE80000D08B86150E026EC60EE82EFED7022E7B
:102AF800FCD700D0032A070E0364EAD79486120095
:102B0800076E000E096E0650D8B415D0010E086E77
:102B180003D0D8900636082A06AEFBD7D8900936D7
:102B28000650075CD8A003D00650075E0980D890ED
:102B38000632082EF3D7095012000B6E48EC17F036
:102B48000B2834EC16F00001746F010E72EC16F0CD
:102B58000C6E010E72EC16F00D6E000E72EC16F093
:102B680044EC17F00C50086E0D50066E08C007F0C4
:102B78001200C250830B0809C26EC150F30B08093A
:102B8800C16EC282C2B2FED7C450056E046AC35079
:102B98000424066E000E0520076E06C002F007C06A
:102BA80003F01200C250830B0C09C26EC150F30B24
:102BB8000809C16EC282C2B2FED7C450056E046A4B
:102BC800C3500424066E000E0520076E06C002F0EE
:102BD80007C003F01200F30EC116C250830B04099C
:102BE800C26EC282C2B2FED7C450056E046AC35018
:102BF8000424066E000E0520076E06C002F007C00A
:102C080003F01200830EC216C150F30B0809C16EFF
:102C1800C282C2B2FED7C450056E046AC3500424EF
:102C2800066E000E0520076E06C002F007C003F00E
:102C380012000250031004100510D8B408D0000E7A
:102C4800021A000E031A000E041A800E051A02C09A
:102C580002F003C003F004C004F005C005F0120040
:102C6800046EBAEC16F09E9604C0C9FF000E056EFD
:102C780001D0052A9EB603D0950E0564FAD7C5ACD7
:102C880002D0010E1200000E1200036E080E046E30
:102C9800000E056ED89003340534056ED8900336BF
:102CA8000250055CD8A002D00250055E042EF2D76F
:102CB80005501200949C8B9C150E026EC60EE82ED1
:102CC800FED7022EFCD700D0948C680E026EE40E5C
:102CD800E82EFED7022EFCD700D01200046EBAEC04
:102CE80016F0C586BAEC16F0C9CF05F0BAEC16F0A6
:102CF8000450D8A402D0C58A01D0C59AC588055009
:102D0800120002500402F3CF06F0F4CF07F002508D
:102D18000502F350072603500402F350072606C0A5
:102D280002F007C003F01200026EA49E8C9602C047
:102D38006FFFA4AEFED7A49E000E6F6EA4AEFED7A2
:102D4800A49E8C866FCF03F003501200076E48ECE8
:102D580017F0075034EC16F00001746F065034EC8D
:102D680016F00001746F44EC17F01200000E036EA9
:102D780001D0032AC7B406D0C5CF02F01F0E021631
:102D8800D8B41200950E0364F4D7120040EC17F083
:102D9800586E5850F80B586E58500309586E5850D2
:102DA80016EC17F0120040EC17F0066E0650F80B00
:102DB800066E06500109066E065016EC17F0120052
:102DC800900EA1EC15F006C010F007C011F010C06D
:102DD8000EF011C00FF0120040EC17F0066E06500E
:102DE8008009066E065016EC17F0120040EC17F03A
:102DF800066E0650F80B066E065016EC17F0120019
:102E08008B806D8E6D9C6C986C50F00B01096C6E0C
:102E18006C8A1200026E72A2FED702C073FF72B2F1
:102E28001200FDD7056E05C002F0010E29EC15F061
:102E38001200066E06C002F0800E99EC14F0120023
:102E4800120E98EC16F0046E04501200FF0E026E7B
:102E5800120E29EC15F01200F286628AF28CF28EBC
:102E6800F29012000C0E066E900EAAEC16F01200EC
:102E78006C27DA882FE41AF0010E98EC16F012008D
:102E8800BAEC16F0C5841200BAEC16F0C580120030
:10FC4400000000C1C081C1400101C3C00380024162
:10FC5400C201C6C006800741C70005C1C581C440B2
:10FC64000401CCC00C800D41CD000FC1CF81CE402A
:10FC74000E000AC1CA81CB400B01C9C009800841EA
:10FC8400C801D8C018801941D9001BC1DB81DA40F2
:10FC94001A001EC1DE81DF401F01DDC01D801C4132
:10FCA400DC0014C1D481D5401501D7C0178016419A
:10FCB400D601D2C012801341D30011C1D181D040EA
:10FCC4001001F0C030803141F10033C1F381F240C2
:10FCD400320036C1F681F7403701F5C03580344132
:10FCE400F4003CC1FC81FD403D01FFC03F803E412A
:10FCF400FE01FAC03A803B41FB0039C1F981F8406A
:10FD0400380028C1E881E9402901EBC02B802A4151
:10FD1400EA01EEC02E802F41EF002DC1ED81EC40B1
:10FD24002C01E4C024802541E50027C1E781E64099
:10FD3400260022C1E281E3402301E1C02180204169
:10FD4400E001A0C060806141A10063C1A381A24021
:10FD5400620066C1A681A7406701A5C065806441B1
:10FD6400A4006CC1AC81AD406D01AFC06F806E4129
:10FD7400AE01AAC06A806B41AB0069C1A981A840E9
:10FD8400680078C1B881B9407901BBC07B807A41F1
:10FD9400BA01BEC07E807F41BF007DC1BD81BC4031
:10FDA4007C01B4C074807541B50077C1B781B64099
:10FDB400760072C1B281B3407301B1C071807041E9
:10FDC400B00050C190819140510193C05380524181
:10FDD400920196C056805741970055C19581944031
:10FDE40054019CC05C805D419D005FC19F819E4029
:10FDF4005E005AC19A819B405B0199C05980584169
:10FE0400980188C04880494189004BC18B818A4050
:10FE14004A004EC18E818F404F018DC04D804C41B0
:10FE24008C0044C184818540450187C04780464198
:10FE3400860182C042804341830041C18181804068
:10FE4400400000803F000020410000C84200007ACA
:10FE54004400401C460050C347002474498096184F
:10FE64004B20BCBE4C286B6E4EF9021550EC78AD9D
:10FE740060CAF249710000803FCDCCCC3D0AD72343
:10FE84003C6F12833A17B7D138ACC52737BD3786D4
:10FE94003595BFD63377CC2B325F708930FFE6DBE4
:10FEA4002E08E53C1E6042A20D0100000010000077
:10FEB400000001000000100000000001000000101C
:10FEC400000000000100000010010000000A000012
:10FED4000064000000E803000010270000A0860171
:10FEE4000040420F008096980000E1F50500CA9A90
:10FEF4003B5761697420666F7220656E64206F667B
:10FF0400207472616E736D697373696F6E2E2E2E19
:10FF14000D0A005472616E736D697474696E672E94
:10FF24002E2E2E20005472616E736D697474696E86
:10FF3400672E2E2E0D0A00303132333435363738E1
:10FF440039414243444546004558542054454D5098
:10FF54002025640D0A004E6F204D41583331383648
:10FF64003521004C46544C53422025640D0A004868
:10FF740046544D53422025640D0A004C46544D53BB
:10FF8400422025640D0A00535441545553202564DE
:10FF94000D0A005265672025583A25580D0A004578
:10FFA40058542052482025640D0A00544143484FB8
:10FFB4002025640D0A0056535550502025640D0A1F
:10FFC400005458204D6F64650D0A005646414E207A
:10FFD40025640D0A00424154542025640D0A00543E
:10FFE40058463A2025660D0A005458204661696C2B
:0CFFF4000D0A00446F6E652E0D0A00001F
:020000040020DA
:08000000FFFFFFFFFFFFFFFF00
:020000040030CA
:0E000000FF381C3BFFBD85FF0FC00FE00F4017
:00000001FF
